:020000040800F2
:10000000005000205D120008FD0E0008030F0008DC
:10001000090F00080F0F0008150F0008000000006E
:100020000000000000000000000000001B0F00089E
:10003000270F000800000000330F00083F0F0008E2
:10004000A5120008A5120008A5120008A5120008B4
:10005000A5120008A5120008A5120008A5120008A4
:10006000A5120008A5120008A5120008A512000894
:10007000A5120008A5120008A5120008A512000884
:10008000A5120008A5120008A5120008A512000874
:10009000A5120008A5120008A5120008A512000864
:1000A000A5120008A5120008A5120008A512000854
:1000B0004D0F0008610F0008A5120008A5120008E6
:1000C000A5120008A5120008A5120008A512000834
:1000D000A5120008A5120008A5120008A512000824
:1000E000A5120008A5120008A512000800000000D3
:1000F0000000000000000000000000000000000000
:0C01000000000000000000005FF808F1A3
:10010C0010B5054C237833B9044B13B10448AFF345
:10011C0000800123237010BD5C0000200000000053
:10012C001C30000808B5034B1BB103490348AFF35F
:10013C00008008BD00000000600000201C3000089A
:10014C0080B500AF614B1B68013B042B00F2BB80F8
:10015C0001A252F823F000BF79010008A1010008A8
:10016C00DD010008190200086D02000800F03EFFD6
:10017C0000F080FF00F008FD00F0DCF80346012BD6
:10018C0040F09880514B02221A6040F6B83000F0D3
:10019C003BFD8FE000F0EEFE00F05CFF00F0E0FCB9
:1001AC004B4B1B68012B06D1484B03221A604FF4B2
:1001BC00FA6000F029FD00F0BDF80346012B7BD15D
:1001CC00424B0C221A6040F6B83000F01DFD73E073
:1001DC0000F0D0FE00F02EFF00F0C2FC3C4B1B6880
:1001EC00012B06D1394B04221A6040F6B83000F0CE
:1001FC000BFD00F09FF80346012B5FD1334B0C2213
:10020C001A6040F6B83000F0FFFC57E000F0DAFE60
:10021C0000F000FF00F090FC2D4B1B68012B06D169
:10022C002A4B05221A604FF4FA6000F0EDFC00F046
:10023C0081F80346012B06D1244B0C221A6040F6A0
:10024C00B83000F0E1FC00F0ABF80346012B37D1DD
:10025C001E4B20221A6040F6B83000F0D5FC2FE07F
:10026C0000F09CFE00F0D6FE00F066FC184B1B68FC
:10027C00012B06D1154B02221A6040F6B83000F063
:10028C00C3FC00F057F80346012B06D10F4B0C2290
:10029C001A6040F6B83000F0B7FC00F081F8034665
:1002AC00012B0FD1094B20221A604FF4FA6000F099
:1002BC00C7FC07E000BF06E000BF04E000BF02E09F
:1002CC0000BF00E000BF00BF80BD00BF8800002061
:1002DC008C00002080B400AF034B01221A6000BFD9
:1002EC00BD4680BC704700BF7800002080B400AFD2
:1002FC00034B01221A6000BFBD4680BC704700BF93
:10030C007C00002080B400AF034B01221A6000BFB8
:10031C00BD4680BC704700BF8000002080B400AF99
:10032C00034B01221A6000BFBD4680BC704700BF62
:10033C008400002080B400AF064B1B68012B04D155
:10034C00044B00221A60012300E000231846BD462E
:10035C0080BC70477800002080B400AF064B1B684F
:10036C00012B04D1044B00221A60012300E000236E
:10037C001846BD4680BC70477C00002080B400AF9E
:10038C00064B1B68012B04D1044B00221A6001237D
:10039C0000E000231846BD4680BC7047800000205A
:1003AC0080B400AF064B1B68012B04D1044B002218
:1003BC001A60012300E000231846BD4680BC70473C
:1003CC008400002080B500AF1E4B1B681E4A1360D2
:1003DC001E4B1B681B4A136002211D4801F076FA64
:1003EC0003461A46194B1A60174B1A68154B1B68B3
:1003FC009A4225D1134B1A68144B1B689A421FD191
:10040C00144B1A68114B1B689A420DD00F4B1B688A
:10041C00104A13600D4B1B68002B11D1FFF75AFFCC
:10042C000D4B64221A600BE00B4B1B68013B0A4A14
:10043C001360094B1B68002B02D1064B01221A607A
:10044C0000BF80BD04000020000000200800002038
:10045C00000801400C0000201000002080B500AF07
:10046C001E4B1B681E4A13601E4B1B681B4A1360F5
:10047C0010211D4801F02AFA03461A46194B1A603E
:10048C00174B1A68154B1B689A4225D1134B1A68E7
:10049C00144B1B689A421FD1144B1A68114B1B68E2
:1004AC009A420DD00F4B1B68104A13600D4B1B6802
:1004BC00002B11D1FFF71AFF0D4B64221A600BE0D1
:1004CC000B4B1B68013B0A4A1360094B1B68002B42
:1004DC0002D1064B01221A6000BF80BD180000201B
:1004EC00140000201C000020000801402000002007
:1004FC002400002080B500AF1E4B1B681E4A136001
:10050C001E4B1B681B4A136001211D4801F0DEF9CC
:10051C0003461A46194B1A60174B1A68154B1B6881
:10052C009A4225D1134B1A68144B1B689A421FD15F
:10053C00144B1A68114B1B689A420DD00F4B1B6859
:10054C00104A13600D4B1B68002B11D1FFF7DAFE1C
:10055C000D4B64221A600BE00B4B1B68013B0A4AE3
:10056C001360094B1B68002B02D1064B01221A6049
:10057C0000BF80BD2C00002028000020300000208F
:10058C00000C0140340000203800002080B500AF82
:10059C001E4B1B681E4A13601E4B1B681B4A1360C4
:1005AC0001211D4801F092F903461A46194B1A60B5
:1005BC00174B1A68154B1B689A4225D1134B1A68B6
:1005CC00144B1B689A421FD1144B1A68114B1B68B1
:1005DC009A420DD00F4B1B68104A13600D4B1B68D1
:1005EC00002B11D1FFF79AFE0D4B64221A600BE021
:1005FC000B4B1B68013B0A4A1360094B1B68002B11
:10060C0002D1064B01221A6000BF80BD40000020C1
:10061C003C0000204400002000080140480000205D
:10062C004C00002080B500AF00F038FE00F024F83C
:10063C0000F026F900F062F800F0ACF80B4801F07D
:10064C00ADFD00210A4801F053FE4FF4FA7000F0A2
:10065C0087FE084B01221A60FFF772FD00F0A2F929
:10066C0000F018FD00F0A4FAF6E700BF0801002026
:10067C00C00000208800002080B590B000AF07F1CA
:10068C00180328220021184602F0BAFC3B1D002258
:10069C001A605A609A60DA601A610223BB61012306
:1006AC00BB621023FB6202237B630023BB634FF40A
:1006BC006013FB6307F11803184601F037F9034682
:1006CC00002B01D000F068F90F237B600223BB6084
:1006DC000023FB604FF480633B6100237B613B1D77
:1006EC000221184601F0A2FB0346002B01D000F0BA
:1006FC0053F900BF4037BD4680BD000080B586B0C1
:10070C0000AF07F1080300221A605A609A60DA60A1
:10071C003B4600221A605A601D4B4FF080421A6013
:10072C001B4B4FF6FF125A60194B00229A60184B64
:10073C000922DA60164B00221A61154B00229A61CD
:10074C00134801F0DBFC0346002B01D000F024F928
:10075C004FF48053BB6007F1080319460C4802F0B4
:10076C002FF80346002B01D000F016F900233B6054
:10077C0000237B603B461946054802F0ADFB03465F
:10078C00002B01D000F008F900BF1837BD4680BD22
:10079C000801002080B58EB000AF07F128030022BD
:1007AC001A605A609A60DA6007F1200300221A601E
:1007BC005A603B1D00221A605A609A60DA601A6116
:1007CC005A619A612C4B2D4A1A602B4B3F225A606E
:1007DC00294B00229A60284B40F2E732DA60264B14
:1007EC0000221A61244B00229A61234801F086FCF6
:1007FC000346002B01D000F0CFF84FF48053BB62BE
:10080C0007F1280319461C4801F0DAFF0346002BB8
:10081C0001D000F0C1F8184801F012FD0346002B7E
:10082C0001D000F0B9F800233B6200237B6207F192
:10083C0020031946104802F04FFB0346002B01D051
:10084C0000F0AAF860237B600023BB600023FB60F0
:10085C0000237B613B1D00221946074801F0F2FE84
:10086C000346002B01D000F097F8034800F0FAFA89
:10087C0000BF3837BD4680BDC000002000040040DA
:10088C0080B588B000AF07F1100300221A605A60DF
:10089C009A60DA60344B9B69334A43F004039361EA
:1008AC00314B9B6903F00403FB60FB682E4B9B6987
:1008BC002D4A43F0080393612B4B9B6903F008030B
:1008CC00BB60BB68284B9B69274A43F010039361BC
:1008DC00254B9B6903F010037B607B6800224FF46F
:1008EC00A861224801F009F800224FF487612048E2
:1008FC0001F003F813233B6100237B610123BB61EF
:10090C0007F110031946194800F05CFE4FF4A86378
:10091C003B6101237B610023BB610223FB6107F177
:10092C0010031946114800F04DFE01233B610023D2
:10093C007B610123BB6107F1100319460C4800F0E1
:10094C0041FE4FF487633B6101237B610023BB6154
:10095C000223FB6107F110031946054800F032FE33
:10096C0000BF2037BD4680BD00100240000801408A
:10097C00000C014080B582B000AF786000F07CF9CB
:10098C00FFF720FDFFF76AFDFFF7B4FDFFF7FEFD53
:10099C0000BF0837BD4680BD80B400AF72B600BF43
:1009AC00FEE7000080B500AF614B1B680C3B032BCE
:1009BC0000F2BC8001A252F823F000BFD909000854
:1009CC002F0A0008830A0008D70A000800F0D2FAA0
:1009DC0000F040FB00F0C4F8564B1B68012B06D10D
:1009EC00534B03221A604FF4FA6000F00DF9FFF735
:1009FC00A1FC0346012B06D14D4B16221A6042F284
:100A0C00107000F001F9FFF7A7FC0346012B40F032
:100A1C008680474B0D221A604FF4FA6000F0F4F810
:100A2C007DE000F007FB00F0A5FA00F099F8414BCF
:100A3C001B68012B06D13E4B04221A6040F6B830DD
:100A4C0000F0E2F8FFF776FC0346012B06D1384B99
:100A5C0016221A6042F2107000F0D6F8FFF77CFCF8
:100A6C000346012B5DD1324B0E221A6040F6B83092
:100A7C0000F0CAF855E000F0A5FA00F0CBFA00F04F
:100A8C005BF82C4B1B68012B06D1294B05221A60F5
:100A9C004FF4FA6000F0B8F8FFF74CFC0346012B5A
:100AAC0006D1234B16221A6042F2107000F0ACF8FB
:100ABC00FFF752FC0346012B35D11D4B0F221A6058
:100ACC004FF4FA6000F0A0F82DE000F067FA00F0A7
:100ADC00A1FA00F031F8174B1B68012B06D1144B0F
:100AEC0002221A6040F6B83000F08EF8FFF722FCB4
:100AFC000346012B06D10E4B16221A6042F21070DF
:100B0C0000F082F8FFF728FC0346012B0DD1084BAF
:100B1C000C221A6040F6B83000F076F805E000BF01
:100B2C0004E000BF02E000BF00E000BF00BF80BDDA
:100B3C00880000208C00002080B500AF00224FF40C
:100B4C008071054800F0D9FE01224FF48061034802
:100B5C0000F0D3FE00BF80BD00080140000C014036
:100B6C0080B500AF01224FF48071054800F0C5FE3E
:100B7C0000224FF48061034800F0BFFE00BF80BD2F
:100B8C0000080140000C014080B500AF00224FF47A
:100B9C008071054800F0B1FE00224FF480610348DB
:100BAC0000F0ABFE00BF80BD00080140000C01400E
:100BBC0080B500AF114B1B68202B1CD100F0DAF96B
:100BCC0000F028FAFFF7CCFF0D4B1B68012B06D168
:100BDC000A4B05221A604FF4FA6000F015F8094B25
:100BEC001B68012B06D1054B02221A6040F6B83067
:100BFC0000F00AF800BF00BF80BD00BF88000020D5
:100C0C008C0000209400002080B483B000AF78608A
:100C1C007B68084A82FB03129210DB17D31A064A30
:100C2C001360064B00221A6000BF0C37BD4680BC17
:100C3C00704700BF67666666900000208C0000203D
:100C4C0080B483B000AF78607B68084A82FB0312E3
:100C5C009210DB17D31A064A1360064B00221A6057
:100C6C0000BF0C37BD4680BC704700BF6766666628
:100C7C00980000209400002080B400AF244B1B6827
:100C8C00002B0BDD224B1B68013B214A1360204BD0
:100C9C001B68002B02DC1F4B01221A601E4B1B68C9
:100CAC00002B0BDD1C4B1B68013B1B4A13601A4BC2
:100CBC001B68002B02DC194B01221A60184B1B68B5
:100CCC00002B02DC174B01221A60174B1B68002B00
:100CDC0002DC164B01221A60154B1B68002B02DC40
:100CEC00144B01221A60144B1B68002B0BDD124BAA
:100CFC001B68013B104A13600F4B1B68002B02DC76
:100D0C000E4B01221A6000BFBD4680BC704700BF6D
:100D1C00900000208C0000209800002094000020FF
:100D2C00A00000209C000020A4000020A8000020AF
:100D3C00AC000020B0000020B4000020B80000205F
:100D4C0080B483B000AF78607B680A4A82FB0312E0
:100D5C009210DB17D31A084A1360074B1B68013B30
:100D6C00054A1360054B00221A6000BF0C37BD46C4
:100D7C0080BC704767666666A4000020A80000204F
:100D8C0080B485B000AF154B9B69144A43F0010346
:100D9C009361124B9B6903F00103BB60BB680F4B63
:100DAC00DB690E4A43F08053D3610C4BDB6903F0D3
:100DBC0080537B607B680A4B5B68FB60FB6823F0AD
:100DCC00E063FB60FB6843F00073FB60044AFB6864
:100DDC00536000BF1437BD4680BC70470010024002
:100DEC000000014080B584B000AF78607B681B6860
:100DFC00B3F1804F14D1194BDB69184A43F001034E
:100E0C00D361164BDB6903F00103FB60FB68002226
:100E1C0000211C2000F09FFB1C2000F0B8FB18E008
:100E2C007B681B680E4A934213D10C4BDB690B4A4F
:100E3C0043F00203D361094BDB6903F00203BB608F
:100E4C00BB68002200211D2000F085FB1D2000F056
:100E5C009EFB00BF1037BD4680BD00BF0010024096
:100E6C000004004080B588B000AF786007F10C0337
:100E7C0000221A605A609A60DA607B681B68184A14
:100E8C00934229D1174B9B69164A43F01003936187
:100E9C00144B9B6903F01003BB60BB684023FB60E1
:100EAC0002233B610223BB6107F10C0319460E4878
:100EBC0000F088FB0D4B5B68FB61FB6923F440631E
:100ECC00FB61FB6943F0E063FB61FB6943F4406346
:100EDC00FB61064AFB69536000BF2037BD4680BDED
:100EEC0000040040001002400010014000000140CE
:100EFC0080B400AFFEE780B400AFFEE780B400AF73
:100F0C00FEE780B400AFFEE780B400AFFEE780B42C
:100F1C0000AF00BFBD4680BC704780B400AF00BFBF
:100F2C00BD4680BC704780B400AF00BFBD4680BCDE
:100F3C00704780B500AF00F0F7F900BF80BD00002E
:100F4C0080B500AF024801F075FA00BF80BD00BF4C
:100F5C000801002080B500AF024801F06BFA00BF19
:100F6C0080BD00BFC000002080B400AF00BFBD46F4
:100F7C0080BC704780B500AF00220821054800F006
:100F8C00BCFC01224FF48061034800F0B6FC00BFAA
:100F9C0080BD00BF000C01400008014080B500AFCF
:100FAC0001220821054800F0A8FC01224FF48061C1
:100FBC00034800F0A2FC00BF80BD00BF000C014044
:100FCC000008014080B500AF01220821054800F05F
:100FDC0094FC00224FF48061034800F08EFC00BFAB
:100FEC0080BD00BF000C01400008014080B500AF7F
:100FFC0000220821054800F080FC00224FF480619B
:10100C00034800F07AFC00BF80BD00BF000C01401B
:10101C000008014080B500AF01222021044800F0F7
:10102C006CFC00221021024800F067FC00BF80BD60
:10103C00000C014080B500AF01222021044800F0D3
:10104C005CFC01221021024800F057FC00BF80BD5F
:10105C00000C014080B500AF00222021044800F0B4
:10106C004CFC01221021024800F047FC00BF80BD5F
:10107C00000C014080B500AF00222021044800F094
:10108C003CFC00221021024800F037FC00BF80BD60
:10109C00000C014080B500AF6B4B1B68163B032B5B
:1010AC0000F2D08001A252F823F000BFC910000852
:1010BC002911000887110008E5110008FFF75AFFF5
:1010CC00FFF7C8FFFFF74CFD604B1B68012B04D0EA
:1010DC00FFF754F90346012B06D15B4B16221A601D
:1010EC0042F21070FFF790FDFFF724F90346012B35
:1010FC0006D1554B02221A6040F6B830FFF784FD3A
:10110C00FFF72AF90346012B40F095804E4B17222E
:10111C001A6042F21070FFF777FD8CE0FFF72AFFA0
:10112C00FFF788FFFFF71CFD484B1B68012B04D011
:10113C00FFF724F90346012B06D1434B17221A6003
:10114C0042F21070FFF760FDFFF7F4F80346012B35
:10115C0006D13D4B02221A6040F6B830FFF754FD21
:10116C00FFF7FAF80346012B67D1374B18221A60A8
:10117C0042F21070FFF7E4FD5FE0FFF723FFFFF78B
:10118C0059FFFFF7D9FC314B1B68012B04D0FFF73B
:10119C00F5F80346012B06D12B4B18221A6042F2AC
:1011AC001070FFF731FDFFF7C5F80346012B06D190
:1011BC00254B02221A6040F6B830FFF725FDFFF7E9
:1011CC00CBF80346012B3AD11F4B19221A6042F27D
:1011DC001070FFF719FD32E0FFF7E0FEFFF71AFF82
:1011EC00FFF7AAFC194B1B68012B04D0FFF7C6F8BC
:1011FC000346012B06D1144B19221A6042F21070CF
:10120C00FFF702FDFFF796F80346012B06D10E4BB4
:10121C0002221A6040F6B830FFF7F6FCFFF79CF894
:10122C000346012B0DD1084B16221A6042F21070A6
:10123C00FFF7EAFC05E000BF04E000BF02E000BFDE
:10124C0000E000BF00BF80BD880000208C000020A3
:10125C000C480D490D4A002302E0D458C450043305
:10126C00C4188C42F9D30A4A0A4C002301E01360DB
:10127C000432A242FBD3FFF777FE01F09DFEFFF78D
:10128C00D1F97047000000205C0000205C300008A1
:10129C005C00002054010020FEE7000080B500AF88
:1012AC00084B1B68074A43F010031360032000F03F
:1012BC0047F90F2000F008F8FFF762FD00231846ED
:1012CC0080BD00BF0020024080B582B000AF7860C6
:1012DC00124B1A68124B1B7819464FF47A73B3FBF6
:1012EC00F1F3B2FBF3F3184600F05FF90346002B61
:1012FC0001D001230EE07B680F2B0AD800227968FD
:10130C004FF0FF3000F027F9064A7B68136000238A
:10131C0000E0012318460837BD4680BD5000002070
:10132C00580000205400002080B400AF054B1B78FF
:10133C001A46054B1B681344034A136000BFBD4695
:10134C0080BC7047580000205001002080B400AFD2
:10135C00024B1B681846BD4680BC704750010020EC
:10136C0080B584B000AF7860FFF7F0FFB8607B68A1
:10137C00FB60FB68B3F1FF3F05D00A4B1B781A46A4
:10138C00FB681344FB6000BFFFF7E0FF0246BB683D
:10139C00D31AFA689A42F7D800BF00BF1037BD467F
:1013AC0080BD00BF5800002080B485B000AF7860CD
:1013BC007B6803F00703FB600C4BDB68BB60BA680F
:1013CC004FF6FF031340BB60FB681A02BB68134364
:1013DC0043F0BF6343F40033BB60044ABB68D36083
:1013EC0000BF1437BD4680BC704700BF00ED00E065
:1013FC0080B400AF044BDB681B0A03F007031846EC
:10140C00BD4680BC704700BF00ED00E080B483B0E7
:10141C0000AF0346FB7197F90730002B0BDBFB7910
:10142C0003F01F02064997F907305B09012000FA07
:10143C0002F241F8232000BF0C37BD4680BC704738
:10144C0000E100E080B483B000AF03463960FB716B
:10145C0097F90730002B0ADB3B68DAB20C4997F995
:10146C0007301201D2B20B4483F800230AE03B6828
:10147C00DAB20849FB7903F00F03043B1201D2B234
:10148C000B441A7600BF0C37BD4680BC704700BFBA
:10149C0000E100E000ED00E080B489B000AFF8603E
:1014AC00B9607A60FB6803F00703FB61FB69C3F169
:1014BC000703042B28BF0423BB61FB690433062BF1
:1014CC0002D9FB69033B00E000237B614FF0FF3244
:1014DC00BB6902FA03F3DA43BB681A407B699A4092
:1014EC004FF0FF317B6901FA03F3D9437B680B4062
:1014FC00134318462437BD4680BC704780B582B074
:10150C0000AF78607B68013BB3F1807F01D301238E
:10151C000FE00A4A7B68013B53600F214FF0FF300C
:10152C00FFF790FF054B00229A60044B07221A60CC
:10153C00002318460837BD4680BD00BF10E000E010
:10154C0080B582B000AF78607868FFF72DFF00BFE0
:10155C000837BD4680BD80B586B000AF0346B96084
:10156C007A60FB7300237B61FFF742FF78617A6836
:10157C00B9687869FFF790FF024697F90F3011466A
:10158C001846FFF75FFF00BF1837BD4680BD80B51A
:10159C0082B000AF0346FB7197F907301846FFF78E
:1015AC0035FF00BF0837BD4680BD80B582B000AFA7
:1015BC0078607868FFF7A2FF034618460837BD46E7
:1015CC0080BD000080B48BB000AF78603960002320
:1015DC007B6200233B6269E101227B6A02FA03F31E
:1015EC00FB613B681B68FA691340BB61BA69FB6914
:1015FC009A4240F058813B685B689A4A93425ED0AD
:10160C00984A934275D8984A934258D0964A934236
:10161C006FD8964A934252D0944A934269D8944ACE
:10162C0093424CD0924A934263D8924A934246D00A
:10163C00904A93425DD8122B2AD8122B59D801A26A
:10164C0052F823F0CB160008A5160008B7160008B0
:10165C00F9160008FF160008FF160008FF16000810
:10166C00FF160008FF160008FF160008FF160008FA
:10167C00FF160008FF160008FF160008FF160008EA
:10168C00FF160008FF160008AD160008C11600086A
:10169C00794A934213D02CE03B68DB683B6229E02B
:1016AC003B68DB6804333B6224E03B68DB6808334F
:1016BC003B621FE03B68DB680C333B621AE03B6823
:1016CC009B68002B02D104233B6213E03B689B68B0
:1016DC00012B05D108233B627B68FA691A6109E08A
:1016EC0008233B627B68FA695A6103E000233B6282
:1016FC0000E000BFBB69FF2B01D87B6801E07B6871
:10170C0004337B61BB69FF2B02D87B6A9B0002E030
:10171C007B6A083B9B003B617B691A680F213B6924
:10172C0001FA03F3DB431A40396A3B6901FA03F30C
:10173C001A437B691A603B685B6803F08053002B8B
:10174C0000F0B1804D4B9B694C4A43F0010393610F
:10175C004A4B9B6903F00103BB60BB68484A7B6A38
:10176C009B08023352F82330FB607B6A03F00303BF
:10177C009B000F2202FA03F3DB43FA681340FB6071
:10178C007B68404A934213D07B683F4A93420DD00A
:10179C007B683E4A934207D07B683D4A934201D115
:1017AC00032306E0042304E0022302E0012300E00B
:1017BC0000237A6A02F0030292009340FA68134302
:1017CC00FB602F497B6A9B080233FA6841F823209F
:1017DC003B685B6803F48033002B06D02D4B1A68F2
:1017EC002C49BB6913430B6006E02A4B1A68BB6992
:1017FC00DB43284913400B603B685B6803F4003300
:10180C00002B06D0234B5A682249BB6913434B600B
:10181C0006E0204B5A68BB69DB431E4913404B6002
:10182C003B685B6803F48013002B06D0194B9A6855
:10183C001849BB6913438B6006E0164B9A68BB6969
:10184C00DB43144913408B603B685B6803F4001363
:10185C00002B21D00F4BDA680E49BB691343CB60C8
:10186C0021E000BF000032100000311000002210F7
:10187C000000211000001210000011100010024096
:10188C000000014000080140000C01400010014024
:10189C0000140140000401400B4BDA68BB69DB43C8
:1018AC0009491340CB607B6A01337B623B681A6841
:1018BC007B6A22FA03F3002B7FF48EAE00BF00BFCD
:1018CC002C37BD4680BC70470004014080B485B005
:1018DC0000AF78600B467B807B689A687B881340EE
:1018EC00002B02D00123FB7301E00023FB73FB7B75
:1018FC0018461437BD4680BC704780B483B000AF27
:10190C0078600B467B8013467B707B78002B03D072
:10191C007A887B681A6103E07B881A047B681A61F9
:10192C0000BF0C37BD4680BC7047000080B586B048
:10193C0000AF78607B68002B01D101236CE27B68DF
:10194C001B6803F00103002B00F08780924B5B684F
:10195C0003F00C03042B0CD08F4B5B6803F00C03CF
:10196C00082B12D18C4B5B6803F48033B3F5803FAA
:10197C000BD1894B1B6803F40033002B6CD07B68B4
:10198C005B68002B68D1012346E27B685B68B3F58A
:10199C00803F06D1804B1B687F4A43F48033136031
:1019AC002EE07B685B68002B0CD17B4B1B687A4A62
:1019BC0023F480331360784B1B68774A23F480231D
:1019CC0013601DE07B685B68B3F5A02F0CD1724BE4
:1019DC001B68714A43F4802313606F4B1B686E4A7B
:1019EC0043F4803313600BE06B4B1B686A4A23F49F
:1019FC0080331360684B1B68674A23F480231360A1
:101A0C007B685B68002B13D0FFF7A0FC386108E003
:101A1C00FFF79CFC02463B69D31A642B01D90323C4
:101A2C00FAE15D4B1B6803F40033002BF0D014E09B
:101A3C00FFF78CFC386108E0FFF788FC02463B6935
:101A4C00D31A642B01D90323E6E1534B1B6803F42F
:101A5C000033002BF0D100E000BF7B681B6803F063
:101A6C000203002B63D04C4B5B6803F00C03002B80
:101A7C000BD0494B5B6803F00C03082B1CD1464B75
:101A8C005B6803F48033002B16D1434B1B6803F0C7
:101A9C000203002B05D07B681B69012B01D00123AD
:101AAC00BAE13D4B1B6823F0F8027B685B69DB00F5
:101ABC00394913430B603AE07B681B69002B20D03B
:101ACC00364B01221A60FFF741FC386108E0FFF742
:101ADC003DFC02463B69D31A022B01D903239BE13F
:101AEC002D4B1B6803F00203002BF0D02A4B1B6814
:101AFC0023F0F8027B685B69DB00274913430B601A
:101B0C0015E0264B00221A60FFF720FC386108E034
:101B1C00FFF71CFC02463B69D31A022B01D90323A5
:101B2C007AE11D4B1B6803F00203002BF0D17B689C
:101B3C001B6803F00803002B3AD07B689B69002BD1
:101B4C0019D0174B01221A60FFF700FC386108E02E
:101B5C00FFF7FCFB02463B69D31A022B01D9032386
:101B6C005AE10D4B5B6A03F00203002BF0D001200D
:101B7C0000F0A6FA1CE00A4B00221A60FFF7E6FB05
:101B8C0038610FE0FFF7E2FB02463B69D31A022BE8
:101B9C0008D9032340E100BF00100240000042427C
:101BAC00800442429E4B5B6A03F00203002BE9D196
:101BBC007B681B6803F00403002B00F0A680002355
:101BCC00FB75974BDB6903F08053002B0DD1944BC5
:101BDC00DB69934A43F08053D361914BDB6903F08B
:101BEC008053BB60BB680123FB758E4B1B6803F4F1
:101BFC008073002B18D18B4B1B688A4A43F480737B
:101C0C001360FFF7A3FB386108E0FFF79FFB024668
:101C1C003B69D31A642B01D90323FDE0814B1B686C
:101C2C0003F48073002BF0D07B68DB68012B06D1AA
:101C3C007B4B1B6A7A4A43F0010313622DE07B68ED
:101C4C00DB68002B0CD1764B1B6A754A23F0010321
:101C5C001362734B1B6A724A23F0040313621CE079
:101C6C007B68DB68052B0CD16D4B1B6A6C4A43F00F
:101C7C00040313626A4B1B6A694A43F00103136243
:101C8C000BE0674B1B6A664A23F001031362644B3B
:101C9C001B6A634A23F0040313627B68DB68002B26
:101CAC0015D0FFF753FB38610AE0FFF74FFB0246F4
:101CBC003B69D31A41F28832934201D90323ABE03A
:101CCC00574B1B6A03F00203002BEED014E0FFF716
:101CDC003DFB38610AE0FFF739FB02463B69D31A3A
:101CEC0041F28832934201D9032395E04C4B1B6A95
:101CFC0003F00203002BEED1FB7D012B05D1484BE9
:101D0C00DB69474A23F08053D3617B68DB69002B86
:101D1C0000F08180424B5B6803F00C03082B61D010
:101D2C007B68DB69022B46D13F4B00221A60FFF720
:101D3C000DFB386108E0FFF709FB02463B69D31A3B
:101D4C00022B01D9032367E0354B1B6803F00073AA
:101D5C00002BF0D17B681B6AB3F5803F08D1304B68
:101D6C005B6823F400327B689B682D4913434B60FE
:101D7C002B4B5B6823F474127B68196A7B685B6A73
:101D8C000B43274913434B60274B01221A60FFF783
:101D9C00DDFA386108E0FFF7D9FA02463B69D31A3D
:101DAC00022B01D9032337E01D4B1B6803F0007392
:101DBC00002BF0D02FE01C4B00221A60FFF7C6FA64
:101DCC00386108E0FFF7C2FA02463B69D31A022BCE
:101DDC0001D9032320E0124B1B6803F00073002B86
:101DEC00F0D118E07B68DB69012B01D1012313E0F2
:101DFC000B4B5B68FB60FB6803F480327B681B6AEF
:101E0C009A4206D1FB6803F470127B685B6A9A42B3
:101E1C0001D0012300E0002318461837BD4680BDD1
:101E2C0000100240007000406000424280B584B057
:101E3C0000AF786039607B68002B01D10123D0E0C2
:101E4C006A4B1B6803F007033A689A4210D9674B38
:101E5C001B6823F0070265493B6813430B60634B17
:101E6C001B6803F007033A689A4201D00123B8E0DB
:101E7C007B681B6803F00203002B20D07B681B6877
:101E8C0003F00403002B05D0594B5B68584A43F40C
:101E9C00E06353607B681B6803F00803002B05D0DC
:101EAC00534B5B68524A43F460535360504B5B682E
:101EBC0023F0F0027B689B684D4913434B607B68B1
:101ECC001B6803F00103002B40D07B685B68012B7F
:101EDC0007D1474B1B6803F40033002B15D10123AA
:101EEC007FE07B685B68022B07D1414B1B6803F0DA
:101EFC000073002B09D1012373E03D4B1B6803F0E9
:101F0C000203002B01D101236BE0394B5B6823F0FA
:101F1C0003027B685B68364913434B60FFF716FA84
:101F2C00F8600AE0FFF712FA0246FB68D31A41F296
:101F3C008832934201D9032353E02D4B5B6803F0A5
:101F4C000C027B685B689B009A42EBD1274B1B68A9
:101F5C0003F007033A689A4210D2244B1B6823F013
:101F6C00070222493B6813430B60204B1B6803F0AC
:101F7C0007033A689A4201D0012332E07B681B6860
:101F8C0003F00403002B08D0194B5B6823F4E062C8
:101F9C007B68DB68164913434B607B681B6803F056
:101FAC000803002B09D0124B5B6823F460527B684A
:101FBC001B69DB000E4913434B6000F021F802460D
:101FCC000B4B5B681B0903F00F030A49CB5C22FA2D
:101FDC0003F3094A1360094B1B681846FFF774F9A1
:101FEC00002318461037BD4680BD00BF00200240BC
:101FFC000010024044300008500000205400002023
:10200C0090B48AB000AF2A4B3C1D0FCB84E80F0074
:10201C0040F201233B800023FB610023BB610023C2
:10202C007B6200237B6100233B62224B5B68FB617C
:10203C00FB6903F00C03042B02D0082B03D02DE01A
:10204C001D4B3B622DE0FB699B0C03F00F0307F16A
:10205C002802134413F8243C7B61FB6903F480339E
:10206C00002B13D0134B5B685B0C03F0010307F1DF
:10207C002802134413F8283CBB617B690E4A02FB0F
:10208C0003F2BB69B2FBF3F37B6204E07B690B4A9E
:10209C0002FB03F37B627B6A3B6202E0064B3B6212
:1020AC0000BF3B6A18462837BD4690BC704700BF3E
:1020BC00343000080010024000127A0000093D0084
:1020CC0080B485B000AF78600A4B1B680A4AA2FB4B
:1020DC0003235B0A7A6802FB03F3FB6000BFFB6817
:1020EC005A1EFA60002BF9D100BF00BF1437BD4651
:1020FC0080BC704750000020D34D621080B582B078
:10210C0000AF78607B68002B01D1012341E07B6834
:10211C0093F83D30DBB2002B06D17B68002283F8AC
:10212C003C207868FEF75EFE7B68022283F83D2037
:10213C007B681A687B6804331946104600F028FC4B
:10214C007B68012283F846207B68012283F83E20BD
:10215C007B68012283F83F207B68012283F84020B2
:10216C007B68012283F841207B68012283F842209E
:10217C007B68012283F843207B68012283F844208A
:10218C007B68012283F845207B68012283F83D207F
:10219C00002318460837BD4680BD000080B485B0CA
:1021AC0000AF78607B6893F83D30DBB2012B01D037
:1021BC0001233AE07B68022283F83D207B681B6890
:1021CC00DA687B681B6842F00102DA607B681B6886
:1021DC00184A93420ED07B681B68B3F1804F09D02C
:1021EC007B681B68144A934204D07B681B68134AB3
:1021FC00934211D17B681B689B6803F00703FB605B
:10220C00FB68062B10D07B681B681A687B681B6800
:10221C0042F001021A6007E07B681B681A687B6851
:10222C001B6842F001021A60002318461437BD46A1
:10223C0080BC7047002C01400004004000080040A6
:10224C0080B582B000AF78607B68002B01D1012390
:10225C0041E07B6893F83D30DBB2002B06D17B6804
:10226C00002283F83C20786800F039F87B68022261
:10227C0083F83D207B681A687B6804331946104646
:10228C0000F086FB7B68012283F846207B680122E4
:10229C0083F83E207B68012283F83F207B68012273
:1022AC0083F840207B68012283F841207B6801225F
:1022BC0083F842207B68012283F843207B6801224B
:1022CC0083F844207B68012283F845207B68012237
:1022DC0083F83D20002318460837BD4680BD80B4E6
:1022EC0083B000AF786000BF0C37BD4680BC704730
:1022FC0080B584B000AF786039603B68002B09D1A1
:10230C007B6893F83E30DBB2012B14BF0123002312
:10231C00DBB222E03B68042B09D17B6893F83F3099
:10232C00DBB2012B14BF01230023DBB215E03B68A9
:10233C00082B09D17B6893F84030DBB2012B14BF1A
:10234C0001230023DBB208E07B6893F84130DBB259
:10235C00012B14BF01230023DBB2002B01D001237E
:10236C005EE03B68002B04D17B68022283F83E20A0
:10237C0013E03B68042B04D17B68022283F83F20D6
:10238C000BE03B68082B04D17B68022283F84020C9
:10239C0003E07B68022283F841207B681B680122E2
:1023AC003968184600F074FD7B681B681E4A93421E
:1023BC0007D17B681B685A6C7B681B6842F400422F
:1023CC005A647B681B68184A93420ED07B681B6862
:1023DC00B3F1804F09D07B681B68144A934204D038
:1023EC007B681B68124A934211D17B681B689B68FF
:1023FC0003F00703FB60FB68062B10D07B681B689F
:10240C001A687B681B6842F001021A6007E07B685F
:10241C001B681A687B681B6842F001021A60002373
:10242C0018461037BD4680BD002C0140000400400A
:10243C000008004080B582B000AF78607B681B68F4
:10244C001B6903F00203022B22D17B681B68DB683B
:10245C0003F00203022B1BD17B681B686FF0020296
:10246C001A617B6801221A777B681B689B6903F0F1
:10247C000303002B03D0786800F06FFA05E078684E
:10248C0000F062FA786800F071FA7B6800221A7723
:10249C007B681B681B6903F00403042B22D17B6847
:1024AC001B68DB6803F00403042B1BD17B681B68DF
:1024BC006FF004021A617B6802221A777B681B6832
:1024CC009B6903F44073002B03D0786800F045FA45
:1024DC0005E0786800F038FA786800F047FA7B6815
:1024EC0000221A777B681B681B6903F00803082B12
:1024FC0022D17B681B68DB6803F00803082B1BD117
:10250C007B681B686FF008021A617B6804221A77DB
:10251C007B681B68DB6903F00303002B03D078682E
:10252C0000F01BFA05E0786800F00EFA786800F00D
:10253C001DFA7B6800221A777B681B681B6903F005
:10254C001003102B22D17B681B68DB6803F010038F
:10255C00102B1BD17B681B686FF010021A617B6813
:10256C0008221A777B681B68DB6903F44073002B25
:10257C0003D0786800F0F1F905E0786800F0E4F930
:10258C00786800F0F3F97B6800221A777B681B6887
:10259C001B6903F00103012B0ED17B681B68DB6800
:1025AC0003F00103012B07D17B681B686FF001025C
:1025BC001A617868FEF7DEF97B681B681B6903F00B
:1025CC008003802B0ED17B681B68DB6803F08003D3
:1025DC00802B07D17B681B686FF080021A617868CA
:1025EC0000F0E1FC7B681B681B6903F04003402B87
:1025FC000ED17B681B68DB6803F04003402B07D1CE
:10260C007B681B686FF040021A61786800F0B7F9BC
:10261C007B681B681B6903F02003202B0ED17B68A1
:10262C001B68DB6803F02003202B07D17B681B6839
:10263C006FF020021A61786800F0ACFC00BF08371C
:10264C00BD4680BD80B584B000AFF860B9607A60DB
:10265C00FB6893F83C30012B01D10223ACE0FB6802
:10266C00012283F83C207B680C2B00F29F8001A296
:10267C0052F823F0B5260008B9270008B92700083E
:10268C00B9270008F5260008B9270008B927000863
:10269C00B927000837270008B9270008B927000810
:1026AC00B927000877270008FB681B68B96818462B
:1026BC0000F0D0F9FB681B689A69FB681B6842F054
:1026CC0008029A61FB681B689A69FB681B6822F018
:1026DC0004029A61FB681B689969BB681A69FB68FC
:1026EC001B680A439A6162E0FB681B68B96818466C
:1026FC0000F016FAFB681B689A69FB681B6842F4C9
:10270C0000629A61FB681B689A69FB681B6822F47B
:10271C0080629A61FB681B689969BB681B691A0225
:10272C00FB681B680A439A6141E0FB681B68B96847
:10273C00184600F05FFAFB681B68DA69FB681B68D7
:10274C0042F00802DA61FB681B68DA69FB681B68F7
:10275C0022F00402DA61FB681B68D969BB681A694C
:10276C00FB681B680A43DA6121E0FB681B68B968E7
:10277C00184600F0A9FAFB681B68DA69FB681B684D
:10278C0042F40062DA61FB681B68DA69FB681B685B
:10279C0022F48062DA61FB681B68D969BB681B692B
:1027AC001A02FB681B680A43DA6100E000BFFB6891
:1027BC00002283F83C20002318461037BD4680BD0C
:1027CC0080B584B000AF786039607B6893F83C309A
:1027DC00012B01D10223B3E07B68012283F83C205A
:1027EC007B68022283F83D207B681B689B68FB603A
:1027FC00FB6823F07703FB60FB6823F47F43FB60EB
:10280C007B681B68FA689A603B681B68B3F5005FCD
:10281C003ED0B3F5005F00F28780B3F5805F00F027
:10282C008580B3F5805F7FD8702B1AD0702B7BD846
:10283C00602B50D0602B77D8502B3CD0502B73D8BA
:10284C00402B58D0402B6FD8302B64D0302B6BD80A
:10285C00202B60D0202B67D8002B5CD0102B5AD0AB
:10286C0062E07B6818683B6899683B685A683B680B
:10287C00DB6800F0EEFA7B681B689B68FB60FB680A
:10288C0043F07703FB607B681B68FA689A604EE044
:10289C007B6818683B6899683B685A683B68DB68DA
:1028AC0000F0D7FA7B681B689A687B681B6842F457
:1028BC0080429A603BE07B6818683B6859683B68CB
:1028CC00DB681A4600F04EFA7B681B6850211846EC
:1028DC0000F0A5FA2BE07B6818683B6859683B68E8
:1028EC00DB681A4600F06CFA7B681B68602118469E
:1028FC0000F095FA1BE07B6818683B6859683B68E8
:10290C00DB681A4600F02EFA7B681B6840211846DB
:10291C0000F085FA0BE07B681A683B681B68194667
:10292C00104600F07CFA02E000BF00E000BF7B68BC
:10293C00012283F83D207B68002283F83C20002391
:10294C0018461037BD4680BD80B483B000AF7860A8
:10295C0000BF0C37BD4680BC704780B483B000AF5D
:10296C00786000BF0C37BD4680BC704780B483B024
:10297C0000AF786000BF0C37BD4680BC704780B498
:10298C0083B000AF786000BF0C37BD4680BC704789
:10299C0080B485B000AF786039607B681B68FB60E1
:1029AC007B68294A93420BD07B68B3F1804F07D0E8
:1029BC007B68264A934203D07B68254A934208D110
:1029CC00FB6823F07003FB603B685B68FA68134399
:1029DC00FB607B681C4A93420BD07B68B3F1804F41
:1029EC0007D07B68194A934203D07B68184A9342FC
:1029FC0008D1FB6823F44073FB603B68DB68FA6822
:102A0C001343FB60FB6823F080023B685B69134354
:102A1C00FB607B68FA681A603B689A687B68DA62CC
:102A2C003B681A687B689A627B68074A934203D1B9
:102A3C003B681A697B681A637B6801225A6100BF84
:102A4C001437BD4680BC7047002C01400004004088
:102A5C000008004080B487B000AF786039607B68B4
:102A6C001B6A23F001027B681A627B681B6A7B611C
:102A7C007B685B683B617B689B69FB60FB6823F050
:102A8C007003FB60FB6823F00303FB603B681B686F
:102A9C00FA681343FB607B6923F002037B613B689C
:102AAC009B687A6913437B617B681C4A93420CD107
:102ABC007B6923F008037B613B68DB687A6913430D
:102ACC007B617B6923F004037B617B68134A93422F
:102ADC0011D13B6923F480733B613B6923F4007390
:102AEC003B613B685B693A6913433B613B689B699B
:102AFC003A6913433B617B683A695A607B68FA68B0
:102B0C009A613B685A687B685A637B687A691A6277
:102B1C0000BF1C37BD4680BC704700BF002C014075
:102B2C0080B487B000AF786039607B681B6A23F093
:102B3C0010027B681A627B681B6A7B617B685B682E
:102B4C003B617B689B69FB60FB6823F4E043FB60A3
:102B5C00FB6823F44073FB603B681B681B02FA683C
:102B6C001343FB607B6923F020037B613B689B680C
:102B7C001B017A6913437B617B681D4A93420DD11B
:102B8C007B6923F080037B613B68DB681B017A69FE
:102B9C0013437B617B6923F040037B617B68144AA0
:102BAC00934213D13B6923F480633B613B6923F46B
:102BBC0000633B613B685B699B003A6913433B6173
:102BCC003B689B699B003A6913433B617B683A699C
:102BDC005A607B68FA689A613B685A687B689A63AA
:102BEC007B687A691A6200BF1C37BD4680BC70478F
:102BFC00002C014080B487B000AF786039607B68EE
:102C0C001B6A23F480727B681A627B681B6A7B6187
:102C1C007B685B683B617B68DB69FB60FB6823F06E
:102C2C007003FB60FB6823F00303FB603B681B68CD
:102C3C00FA681343FB607B6923F400737B613B6888
:102C4C009B681B027A6913437B617B681D4A934224
:102C5C000DD17B6923F400637B613B68DB681B024D
:102C6C007A6913437B617B6923F480637B617B68A6
:102C7C00144A934213D13B6923F480533B613B6963
:102C8C0023F400533B613B685B691B013A691343B6
:102C9C003B613B689B691B013A6913433B617B6851
:102CAC003A695A607B68FA68DA613B685A687B68F3
:102CBC00DA637B687A691A6200BF1C37BD4680BC38
:102CCC00704700BF002C014080B487B000AF786023
:102CDC0039607B681B6A23F480527B681A627B68BC
:102CEC001B6A3B617B685B687B617B68DB69FB60B3
:102CFC00FB6823F4E043FB60FB6823F44073FB6048
:102D0C003B681B681B02FA681343FB603B6923F4A6
:102D1C0000533B613B689B681B033A6913433B615F
:102D2C007B680F4A934209D17B6923F480437B6112
:102D3C003B685B699B017A6913437B617B687A69A9
:102D4C005A607B68FA68DA613B685A687B681A6477
:102D5C007B683A691A6200BF1C37BD4680BC70475D
:102D6C00002C014080B487B000AFF860B9607A6085
:102D7C00FB681B6A7B61FB681B6A23F00102FB6822
:102D8C001A62FB689B693B613B6923F0F0033B6172
:102D9C007B681B013A6913433B617B6923F00A038F
:102DAC007B617A69BB6813437B61FB683A699A6102
:102DBC00FB687A691A6200BF1C37BD4680BC70473D
:102DCC0080B487B000AFF860B9607A60FB681B6AAA
:102DDC0023F01002FB681A62FB689B697B61FB683D
:102DEC001B6A3B617B6923F470437B617B681B032B
:102DFC007A6913437B613B6923F0A0033B61BB6899
:102E0C001B013A6913433B61FB687A699A61FB6861
:102E1C003A691A6200BF1C37BD4680BC704780B44B
:102E2C0085B000AF786039607B689B68FB60FB689D
:102E3C0023F07003FB603A68FB68134343F007030D
:102E4C00FB607B68FA689A6000BF1437BD4680BC93
:102E5C00704780B487B000AFF860B9607A603B60AF
:102E6C00FB689B687B617B6923F47F437B613B68D8
:102E7C001A027B681A43BB6813437A6913437B615C
:102E8C00FB687A699A6000BF1C37BD4680BC7047EE
:102E9C0080B487B000AFF860B9607A60BB6803F0AB
:102EAC001F03012202FA03F37B61FB681A6A7B6938
:102EBC00DB431A40FB681A62FB681A6ABB6803F0B2
:102ECC001F03796801FA03F31A43FB681A6200BF07
:102EDC001C37BD4680BC704780B485B000AF7860AD
:102EEC0039607B6893F83C30012B01D1022346E01A
:102EFC007B68012283F83C207B68022283F83D200A
:102F0C007B681B685B68FB607B681B689B68BB60AD
:102F1C00FB6823F07003FB603B681B68FA68134383
:102F2C00FB607B681B68FA685A607B681B68164AF2
:102F3C0093420ED07B681B68B3F1804F09D07B683D
:102F4C001B68124A934204D07B681B68104A934258
:102F5C000CD1BB6823F08003BB603B685B68BA682C
:102F6C001343BB607B681B68BA689A607B6801225C
:102F7C0083F83D207B68002283F83C200023184610
:102F8C001437BD4680BC7047002C01400004004043
:102F9C000008004080B483B000AF786000BF0C37ED
:102FAC00BD4680BC704780B483B000AF786000BF72
:102FBC000C37BD4680BC704770B500260C4D0D4CCF
:102FCC00641BA410A64209D100F022F800260A4D79
:102FDC000A4C641BA410A64205D170BD55F8043BE5
:102FEC0098470136EEE755F8043B98470136F2E76F
:102FFC005430000854300008543000085830000891
:10300C0003460244934200D1704703F8011BF9E7D1
:10301C00F8B500BFF8BC08BC9E467047F8B500BFB9
:08302C00F8BC08BC9E46704789
:1030340002030405060708090A0B0C0D0E0F1010F5
:103044000000000000000000010203040607080954
:04305400310100083E
:043058000D0100085E
:10305C000100000001000000010000000100000060
:10306C0064000000010000000100000001000000ED
:10307C0001000000640000000100000001000000DD
:10308C0001000000010000006400000001000000CD
:10309C0001000000010000000100000064000000BD
:0C30AC000024F4001000000001000000EF
:040000050800125D80
:00000001FF
